:100000000C945D000C9485000C9485000C94850084
:100010000C9485000C9485000C9485000C9485004C
:100020000C9485000C9485000C9485000C9485003C
:100030000C9485000C9485000C9485000C9485002C
:100040000C9403040C9485000C9473040C944D04DC
:100050000C9485000C9485000C9485000C9485000C
:100060000C9485000C94850000000008000201003B
:100070000003040700000000000000000000000072
:10008000250028002B0000000000240027002A0083
:10009000040404040404040402020202020203032E
:1000A0000303030301020408102040800102040836
:1000B0001020010204081020A50411241FBECFEF58
:1000C000D8E0DEBFCDBF22E0A6E7B1E001C01D92BF
:1000D000AB32B207E1F711E0A0E0B1E0ECE6F2E10B
:1000E00002C005900D92A637B107D9F710E0CDE513
:1000F000D0E004C02197FE010E943307CC35D10720
:10010000C9F70E94E2040C9434090C94000090E0BA
:10011000FC01EC55FF4F249180579F4FFC018491C7
:10012000882399F090E0880F991FFC01EA57FF4F50
:10013000A591B491FC01E458FF4F859194918FB73C
:10014000F894EC91E22BEC938FBF089590E0FC01C2
:10015000E859FF4F2491FC01EC55FF4F3491FC010D
:10016000E057FF4FE491EE23C9F0222339F023300A
:1001700001F1A8F4213019F1223029F1F0E0EE0F5D
:10018000FF1FE458FF4FA591B4918FB7F894EC91FD
:10019000611126C030953E233C938FBF08952730D0
:1001A000A9F02830C9F0243049F7809180008F7D74
:1001B00003C0809180008F7780938000DFCF84B56B
:1001C0008F7784BDDBCF84B58F7DFBCF8091B0006E
:1001D0008F778093B000D2CF8091B0008F7DF9CF20
:1001E0003E2BDACF1F93CF93DF93182FEB010E94A2
:1001F0008700209739F460E0812FDF91CF911F9124
:100200000C94A600CF3FD10511F461E0F5CFE12FAA
:10021000F0E0E859FF4FE491E33031F140F4E13090
:10022000B1F0E230E1F0C038D1057CF7E4CFE7303F
:1002300029F1E83059F1E430B1F780918000806213
:1002400080938000D0938B00C0938A0004C084B553
:10025000806884BDC7BDDF91CF911F91089584B59B
:10026000806284BDC8BDF7CF809180008068809394
:100270008000D0938900C0938800EDCF8091B000BA
:1002800080688093B000C093B300E5CF8091B00048
:1002900080628093B000C093B400DDCFAF92BF9274
:1002A000CF92DF92EF92FF920F931F93CF93DF9342
:1002B0006C017B018B01040F151FEB015E01AE1871
:1002C000BF08C017D10759F06991D601ED91FC9193
:1002D0000190F081E02DC6010995892B79F7C501C0
:1002E000DF91CF911F910F91FF90EF90DF90CF9012
:1002F000BF90AF900895FC01538D448D252F30E0C1
:10030000842F90E0821B930B541710F0CF96089522
:1003100001970895FC01918D828D981761F0A28D4F
:10032000AE0FBF2FB11D5D968C91928D9F5F9F7315
:10033000928F90E008958FEF9FEF0895FC01918DCB
:10034000828D981731F0828DE80FF11D858D90E038
:1003500008958FEF9FEF0895FC01918D228D892FD5
:1003600090E0805C9F4F821B91098F7399270895BD
:1003700083E891E00E94AC0121E0892B09F420E0A0
:10038000822F089580E090E0892B29F00E94B80127
:1003900081110C9400000895FC01A48DA80FB92FC1
:1003A000B11DA35ABF4F2C91848D90E001968F739D
:1003B0009927848FA689B7892C93A089B1898C91BC
:1003C000837080648C93938D848D981306C002880B
:1003D000F389E02D80818F7D80830895EF92FF92D5
:1003E0000F931F93CF93DF93EC0181E0888F9B8D58
:1003F0008C8D98131AC0E889F989808185FF15C012
:100400009FB7F894EE89FF896083E889F989808134
:100410008370806480839FBF81E090E0DF91CF9103
:100420001F910F91FF90EF900895F62E0B8D10E025
:100430000F5F1F4F0F731127E02E8C8D8E110CC094
:100440000FB607FCFACFE889F989808185FFF5CFDF
:10045000CE010E94CC01F1CFEB8DEC0FFD2FF11DF1
:10046000E35AFF4FF0829FB7F8940B8FEA89FB891C
:1004700080818062CFCFCF93DF93EC01888D88237A
:10048000B9F0AA89BB89E889F9898C9185FD03C0F7
:10049000808186FD0DC00FB607FCF7CF8C9185FFDC
:1004A000F2CF808185FFEDCFCE010E94CC01E9CF54
:1004B000DF91CF910895FC0101900020E9F7319779
:1004C000AF01481B590BBC0183E891E00C944E012D
:1004D000CF93DF93EC0188819981009711F00E94FE
:1004E000D507198218821D821C821B821A82DF9115
:1004F000CF910895FC0180819181009711F00C94B7
:10050000D50708950F931F93CF93DF93EC01888154
:100510009981009759F02A813B812617370730F0DF
:1005200081E0DF91CF911F910F9108958B016F5F53
:100530007F4F0E945E08009759F0998388831B8340
:100540000A832C813D81232B59F7FC011082E8CFCF
:1005500080E0E7CFEF92FF920F931F93CF93DF934B
:10056000EC01FB01E080F180E114F10411F1048160
:10057000158101151105A9F08C819D81080F191FA6
:10058000B801CE010E948202882399F02881398126
:100590008C819D81B701820F931F0E942D091D83BD
:1005A0000C83CE01DF91CF911F910F91FF90EF90BF
:1005B0000895CE010E946802F4CFEF92FF920F934C
:1005C0001F93CF93DF93EC017B018A01BA010E9454
:1005D000820281110BC0CE010E946802CE01DF9120
:1005E000CF911F910F91FF90EF9008951D830C8381
:1005F000B701888199810E942D09F0CFEF92FF9277
:100600000F931F93CF93DF93CDB7DEB729970FB624
:10061000F894DEBF0FBECDBF8C01862FF80111828A
:10062000108213821282158214824AE09E012F5F8B
:100630003F4F7901B90190E00E94D206F701019085
:100640000020E9F73197AF014E195F09B701C801E2
:100650000E94DD0229960FB6F894DEBF0FBECDBF13
:10066000DF91CF911F910F91FF90EF900895FC01C2
:10067000118210821382128215821482FB01019072
:100680000020E9F73197AF01461B570B0C94DD02B0
:10069000EF92FF920F931F93CF93DF93CDB7DEB707
:1006A00062970FB6F894DEBF0FBECDBF182F062F8E
:1006B00070E080912502133051F0809126021430B1
:1006C00031F080912302123011F4809124020E94B3
:1006D000F200602FCE0101960E94FE02612FCE0132
:1006E00007960E94FE0268E171E0CE010D960E941D
:1006F0003703BE01695F7F4FCE010D960E94AA02AB
:100700008C01FC01E480F580F7E0EF0EF11CB701ED
:100710000E9482028823D1F1F801208131818481F5
:1007200095816FE171E0820F931F0E942D09F801FE
:10073000F582E482BE016F5F7F4FC8010E94AA026A
:10074000FC01448155816081718183E891E00E94C0
:100750004E0187E291E00E945B02CE010D960E945D
:100760007A02CE0107960E947A02CE0101960E947B
:100770007A0262960FB6F894DEBF0FBECDBFDF914E
:10078000CF911F910F91FF90EF900895C8010E94A3
:100790006802D0CF0F931F93CF93DF93EC01FB013F
:1007A00084819581892B31F1008111816AE271E0A8
:1007B000C8010E94240962E371E0892B91F065E38E
:1007C00071E0C8010E9424096EE371E0892B49F0B1
:1007D00061E471E0C8010E942409892B59F465E4A1
:1007E00071E0CE010E943703CE01DF91CF911F91BE
:1007F0000F91089588E491E00E945B0287E291E006
:100800000E945B02F1CF1F920F920FB60F9211243C
:100810002F933F938F939F93AF93BF9380917F01CB
:1008200090918001A0918101B091820130917E016F
:1008300023E0230F2D3758F50196A11DB11D2093FC
:100840007E0180937F0190938001A0938101B093FA
:10085000820180917A0190917B01A0917C01B091FD
:100860007D010196A11DB11D80937A0190937B01BA
:10087000A0937C01B0937D01BF91AF919F918F9127
:100880003F912F910F900FBE0F901F90189526E863
:10089000230F0296A11DB11DD2CF1F920F920FB64A
:1008A0000F9211242F933F934F935F936F937F93F6
:1008B0008F939F93AF93BF93EF93FF9383E891E060
:1008C0000E94CC01FF91EF91BF91AF919F918F91C9
:1008D0007F916F915F914F913F912F910F900FBE3C
:1008E0000F901F9018951F920F920FB60F92112420
:1008F0002F938F939F93EF93FF93E0919301F09148
:1009000094018081E0919901F0919A0182FD1BC0D0
:10091000908180919C018F5F8F7320919D01821740
:1009200041F0E0919C01F0E0ED57FE4F958F8093F0
:100930009C01FF91EF919F918F912F910F900FBE8E
:100940000F901F9018958081F4CFE3E8F1E01382B7
:10095000128288EE93E0A0E0B0E084839583A683C2
:10096000B7838AE091E09183808385EC90E095875E
:10097000848784EC90E09787868780EC90E0918B69
:10098000808B81EC90E0938B828B82EC90E0958B56
:10099000848B86EC90E0978B868B118E128E138E53
:1009A000148EE0E2F2E089E080838CE081838BE0CA
:1009B000828383E0838385E0848386E0858388E087
:1009C00086830895CF93DF93CDB7DEB7C755D1099E
:1009D0000FB6F894DEBF0FBECDBF789484B58260A9
:1009E00084BD84B5816084BD85B5826085BD85B5D3
:1009F000816085BD80916E00816080936E00109251
:100A000081008091810082608093810080918100CB
:100A1000816080938100809180008160809380005C
:100A20008091B10084608093B1008091B0008160BA
:100A30008093B00080917A00846080937A008091E6
:100A40007A00826080937A0080917A00816080933E
:100A50007A0080917A00806880937A001092C100B9
:100A6000809120020E948700809122020E948700CC
:100A7000809121020E9487006CE870E0809123023F
:100A80000E94F2006EEB70E0809124020E94F2005E
:100A90006AEF70E0809125020E94F20070E060E051
:100AA000809126020E94F200E0919301F09194015E
:100AB00082E08083E0918F01F09190011082E091BB
:100AC0009101F09192018FEC808310929B01E09153
:100AD0009701F091980186E08083E0919501F09173
:100AE0009601808180618083E0919501F09196016B
:100AF000808188608083E0919501F09196018081EA
:100B000080688083E0919501F091960180818F7DCE
:100B100080837E012AE3E20EF11C30E0C32E30E038
:100B2000D32E2FB7F89480917F0190918001A091EE
:100B30008101B09182012FBF4091760150917701E0
:100B40006091780170917901841B950BA60BB70B0E
:100B5000883E9340A105B10508F418C12FB7F89459
:100B600080917F0190918001A0918101B0918201DB
:100B70002FBF8093760190937701A0937801B09373
:100B8000790168EC81E00E9448036FEF82E00E94E7
:100B900048036FEF83E00E9448036FEF84E00E94F8
:100BA00048036AE271E0CE018E5A9F4F0E943703DC
:100BB00065E371E0CE01845B9F4F0E9437036AE2D8
:100BC00071E0CE018A5B9F4F0E9437036AE271E0B9
:100BD000CE01805C9F4F0E943703BE016E5A7F4F4B
:100BE000CE01C4960E94CA03BE01645B7F4FCE0152
:100BF0008E960E94CA03BE016A5B7F4FCE01889623
:100C00000E94CA03BE01605C7F4FCE0101960E9424
:100C1000CA031BA21AA21DA21CA21FA21EA26981A6
:100C20007A816115710531F04D815E81CE01829628
:100C30000E94DD02BE01685D7F4FCE0182960E9458
:100C4000AA02BE01625D7F4F0E94AA02BE016C5CD7
:100C50007F4F0E94AA021BAE1AAE1DAE1CAE1FAE85
:100C60001EAE8E159F0559F0FC01608171816115E2
:100C7000710529F044815581C7010E94DD02CE0132
:100C800082960E947A02CE0101960E947A02CE01DB
:100C900088960E947A02CE018E960E947A02CE0138
:100CA000C4960E947A024EAD5FAD2AAD3BAD90E096
:100CB00080E010E0110F8417950750F421153105DD
:100CC00039F0F901E80FF91F6081613309F411600F
:100CD00001968830910571F7412F50E070E060E097
:100CE00019A2CE0181964A015B01F1E08F2299247D
:100CF000AA24BB24769567955795479520E3820EE5
:100D0000FC018292CF01411551056105710559F72A
:100D1000EF2B11F00E945B0287E291E00E945B02E0
:100D200060E0809120020E94A600B0902102A09075
:100D3000220208E0612F61708A2D0E94A60016959C
:100D400061E08B2D0E94A60060E08B2D0E94A60022
:100D5000015081F761E0809120020E94A600C70146
:100D60000E947A02CE01805C9F4F0E947A02CE01DF
:100D70008A5B9F4F0E947A02CE01845B9F4F0E9444
:100D80007A02CE018E5A9F4F0E947A02C114D1047A
:100D900009F4C7CE0E94B801882309F4BECE0E9490
:100DA0000000BBCEBB27FB015527AA27880F991F40
:100DB000AA1FA41710F0A41B83955051B9F7A05D8A
:100DC000AA3308F0A95DA193009779F7B111B19307
:100DD0001192CB010C94EC06DC01FC01672F7191A0
:100DE0007723E1F7329704C07C916D937083629111
:100DF000AE17BF07C8F308952F923F924F925F92AC
:100E00006F927F928F929F92AF92BF92CF92DF921A
:100E1000EF92FF920F931F93CF93DF93CDB7DEB77F
:100E2000CA1BDB0B0FB6F894DEBF0FBECDBF099413
:100E30002A88398848885F846E847D848C849B846A
:100E4000AA84B984C884DF80EE80FD800C811B8178
:100E5000AA81B981CE0FD11D0FB6F894DEBF0FBEA7
:100E6000CDBFED010895EE0FFF1F0590F491E02D29
:100E700009940F931F93CF93DF938230910510F461
:100E800082E090E0E0912902F0912A0230E020E037
:100E9000B0E0A0E0309799F42115310509F44AC07B
:100EA000281B390B24303105D8F58A819B816115C7
:100EB000710589F1FB0193838283FE0111C040819A
:100EC00051810281138148175907E0F048175907EB
:100ED00099F4109761F012960C93129713961C9345
:100EE0003296CF01DF91CF911F910F91089500931A
:100EF000290210932A02F4CF2115310551F042172F
:100F0000530738F0A901DB019A01BD01DF01F801A7
:100F1000C1CFEF01F9CF90932A0280932902CDCF60
:100F2000FE01E20FF31F819391932250310939831F
:100F30002883D7CF2091270230912802232B41F418
:100F4000209102013091030130932802209327025F
:100F500020910001309101012115310541F42DB797
:100F60003EB74091040150910501241B350BE091DF
:100F70002702F0912802E217F307A0F42E1B3F0B83
:100F80002817390778F0AC014E5F5F4F24173507FB
:100F900048F04E0F5F1F5093280240932702819321
:100FA00091939FCFF0E0E0E09CCFCF93DF93009749
:100FB000E9F0FC01329713821282A0912902B091CC
:100FC0002A02ED0130E020E01097A1F42081318168
:100FD000820F931F2091270230912802281739078A
:100FE00009F061C0F0932802E0932702DF91CF91CE
:100FF0000895EA01CE17DF07E8F54A815B819E017B
:1010000041155105B1F7E901FB83EA8349915991F3
:10101000C40FD51FEC17FD0761F480819181029602
:10102000840F951FE90199838883828193819B8333
:101030008A83F0E0E0E012968D919C9113970097DF
:10104000B9F52D913C911197CD010296820F931F16
:1010500020912702309128022817390739F6309756
:1010600051F510922A0210922902B0932802A093FF
:101070002702BCCFD383C28340815181840F951F47
:10108000C817D90761F44E5F5F4F88819981480F77
:10109000591F518340838A819B81938382832115C9
:1010A000310509F0B0CFF0932A02E09329029ECFD8
:1010B000FD01DC01C0CF13821282D7CFB0E0A0E0E7
:1010C000E4E6F8E00C94FE068C01009751F4CB01A5
:1010D0000E9439078C01C801CDB7DEB7E0E10C945E
:1010E0001A07FC01E60FF71F9C0122503109E21795
:1010F000F30708F49DC0D901CD91DC911197C61773
:10110000D70798F0C530D10530F3CE010497861784
:10111000970708F3C61BD70B2297C193D1936D9302
:101120007C93CF010E94D507D6CF5B01AC1ABD0AD4
:101130004C018C0E9D1EA0912902B0912A02512CC7
:10114000412CF12CE12C109731F5809127029091E0
:1011500028028815990509F05CC04616570608F064
:1011600058C08091000190910101009741F48DB722
:101170009EB74091040150910501841B950BE8171F
:10118000F90708F055C0F0932802E0932702F9010F
:1011900071836083A0CF8D919C91119712966C9072
:1011A000129713967C901397A815B90559F56C0101
:1011B00042E0C40ED11CCA14DB0420F1AC014A1970
:1011C0005B09DA011296159780F06282738251836F
:1011D0004083D9016D937C93E114F10471F0D70140
:1011E0001396FC93EE93129776CF22968C0F9D1F49
:1011F000F90191838083F301EFCFF0932A02E0930A
:10120000290269CF4816590608F42C017D01D30143
:101210009ACFCB010E9439077C01009749F0AE01BB
:10122000B8010E941B09C8010E94D507870153CF4E
:1012300010E000E050CFFB01DC0102C001900D92F4
:1012400041505040D8F70895FB01DC018D91019089
:1012500080190110D9F3990B0895FB01DC0101906D
:0C1260000D920020E1F70895F894FFCFF4
:10126C0000002B02800000000000EE014E017B010B
:10127C003B02AC018A019E014D6F746F72200020FD
:10128C0073706565643A000D0A00666F727761725F
:10129C0064003130006261636B77617264003031DD
:1012AC00006F6666003030004572726F7220696E96
:1012BC007075742E2E2E2E706C6561736520656EA4
:1012CC007465722076616C696420696E7075742126
:0612DC0021212121210067
:00000001FF
