:020000040000FA
:100000000C945D000C9485000C9485000C94850084
:100010000C9485000C9485000C9485000C9485004C
:100020000C9485000C9485000C9485000C9485003C
:100030000C9485000C9485000C9485000C9485002C
:100040000C9449030C9485000C94B9030C9493030D
:100050000C9485000C9485000C9485000C9485000C
:100060000C9485000C94850000000008000201003B
:100070000003040700000000000000000000000072
:10008000250028002B0000000000240027002A0083
:10009000040404040404040402020202020203032E
:1000A0000303030301020408102040800102040836
:1000B0001020010204081020EB0311241FBECFEF13
:1000C000D8E0DEBFCDBF22E0A8E6B1E001C01D92BE
:1000D000AD31B207E1F711E0A0E0B1E0E4EBF0E10F
:1000E00002C005900D92A836B107D9F710E0CDE512
:1000F000D0E004C02197FE010E945706CC35D107FD
:10010000C9F70E9428040C9458080C94000090E051
:10011000FC01EC55FF4F249180579F4FFC018491C7
:10012000882399F090E0880F991FFC01EA57FF4F50
:10013000A591B491FC01E458FF4F859194918FB73C
:10014000F894EC91E22BEC938FBF089590E0FC01C2
:10015000E859FF4F2491FC01EC55FF4F3491FC010D
:10016000E057FF4FE491EE23C9F0222339F023300A
:1001700001F1A8F4213019F1223029F1F0E0EE0F5D
:10018000FF1FE458FF4FA591B4918FB7F894EC91FD
:10019000611126C030953E233C938FBF08952730D0
:1001A000A9F02830C9F0243049F7809180008F7D74
:1001B00003C0809180008F7780938000DFCF84B56B
:1001C0008F7784BDDBCF84B58F7DFBCF8091B0006E
:1001D0008F778093B000D2CF8091B0008F7DF9CF20
:1001E0003E2BDACF1F93CF93DF93182FEB010E94A2
:1001F0008700209739F460E0812FDF91CF911F9124
:100200000C94A600CF3FD10511F461E0F5CFE12FAA
:10021000F0E0E859FF4FE491E33031F140F4E13090
:10022000B1F0E230E1F0C038D1057CF7E4CFE7303F
:1002300029F1E83059F1E430B1F780918000806213
:1002400080938000D0938B00C0938A0004C084B553
:10025000806884BDC7BDDF91CF911F91089584B59B
:10026000806284BDC8BDF7CF809180008068809394
:100270008000D0938900C0938800EDCF8091B000BA
:1002800080688093B000C093B300E5CF8091B00048
:1002900080628093B000C093B400DDCFAF92BF9274
:1002A000CF92DF92EF92FF920F931F93CF93DF9342
:1002B0006C017B018B01040F151FEB015E01AE1871
:1002C000BF08C017D10759F06991D601ED91FC9193
:1002D0000190F081E02DC6010995892B79F7C501C0
:1002E000DF91CF911F910F91FF90EF90DF90CF9012
:1002F000BF90AF900895FC01538D448D252F30E0C1
:10030000842F90E0821B930B541710F0CF96089522
:1003100001970895FC01918D828D981761F0A28D4F
:10032000AE0FBF2FB11D5D968C91928D9F5F9F7315
:10033000928F90E008958FEF9FEF0895FC01918DCB
:10034000828D981731F0828DE80FF11D858D90E038
:1003500008958FEF9FEF0895FC01918D228D892FD5
:1003600090E0805C9F4F821B91098F7399270895BD
:1003700085E791E00E94AC0121E0892B09F420E09F
:10038000822F089580E090E0892B29F00E94B80127
:1003900081110C9400000895FC01A48DA80FB92FC1
:1003A000B11DA35ABF4F2C91848D90E001968F739D
:1003B0009927848FA689B7892C93A089B1898C91BC
:1003C000837080648C93938D848D981306C002880B
:1003D000F389E02D80818F7D80830895EF92FF92D5
:1003E0000F931F93CF93DF93EC0181E0888F9B8D58
:1003F0008C8D98131AC0E889F989808185FF15C012
:100400009FB7F894EE89FF896083E889F989808134
:100410008370806480839FBF81E090E0DF91CF9103
:100420001F910F91FF90EF900895F62E0B8D10E025
:100430000F5F1F4F0F731127E02E8C8D8E110CC094
:100440000FB607FCFACFE889F989808185FFF5CFDF
:10045000CE010E94CC01F1CFEB8DEC0FFD2FF11DF1
:10046000E35AFF4FF0829FB7F8940B8FEA89FB891C
:1004700080818062CFCFCF93DF93EC01888D88237A
:10048000B9F0AA89BB89E889F9898C9185FD03C0F7
:10049000808186FD0DC00FB607FCF7CF8C9185FFDC
:1004A000F2CF808185FFEDCFCE010E94CC01E9CF54
:1004B000DF91CF910895FC0101900020E9F7319779
:1004C000AF01481B590BBC0185E791E00C944E012C
:1004D000FC0180819181009711F00C94F906089538
:1004E0000F931F93CF93DF93EC018881998100973D
:1004F00059F02A813B812617370730F081E0DF91E0
:10050000CF911F910F9108958B016F5F7F4F0E94D4
:100510008207009759F0998388831B830A832C8173
:100520003D81232B59F7FC011082E8CF80E0E7CF13
:10053000EF92FF920F931F93CF93DF93EC01FB0198
:10054000E080F180E114F10411F1048115810115BD
:100550001105A9F08C819D81080F191FB801CE01EA
:100560000E947002882399F0288139818C819D81B5
:10057000B701820F931F0E9451081D830C83CE0187
:10058000DF91CF911F910F91FF90EF900895888197
:100590009981009711F00E94F906198218821D8234
:1005A0001C821B821A82EBCFEF92FF920F931F9354
:1005B000CF93DF93EC017B018A01BA010E947002A4
:1005C00028813981811114C02115310519F0C90123
:1005D0000E94F906198218821D821C821B821A82CF
:1005E000CE01DF91CF911F910F91FF90EF90089571
:1005F0001D830C83B701C9010E945108F1CFFC0192
:10060000118210821382128215821482FB010190E2
:100610000020E9F73197AF01461B570B0C94D40229
:100620000F931F93CF93DF93EC01FB01848195819E
:10063000892B31F10081118168E171E0C8010E94CC
:10064000480860E271E0892B91F063E271E0C80133
:100650000E9448086CE271E0892B49F06FE271E07A
:10066000C8010E944808892B59F463E371E0CE0168
:100670000E94FF02CE01DF91CF911F910F9108954B
:1006800086E391E00E945B0284E691E00E945B02B7
:10069000F1CF1F920F920FB60F9211242F933F9319
:1006A0008F939F93AF93BF9380917101909172014B
:1006B000A0917301B09174013091700123E0230F78
:1006C0002D3758F50196A11DB11D2093700180931F
:1006D000710190937201A0937301B09374018091A2
:1006E0006C0190916D01A0916E01B0916F01019626
:1006F000A11DB11D80936C0190936D01A0936E01BB
:10070000B0936F01BF91AF919F918F913F912F91C6
:100710000F900FBE0F901F90189526E8230F02969A
:10072000A11DB11DD2CF1F920F920FB60F921124AF
:100730002F933F934F935F936F937F938F939F93E9
:10074000AF93BF93EF93FF9385E791E00E94CC01B5
:10075000FF91EF91BF91AF919F918F917F916F9199
:100760005F914F913F912F910F900FBE0F901F906F
:1007700018951F920F920FB60F9211242F938F93FB
:100780009F93EF93FF93E0918501F0918601808123
:10079000E0918B01F0918C0182FD1BC090818091D2
:1007A0008E018F5F8F7320918F01821741F0E0914E
:1007B0008E01F0E0EB58FE4F958F80938E01FF91F4
:1007C000EF919F918F912F910F900FBE0F901F90DF
:1007D00018958081F4CFE5E7F1E01382128288EE6C
:1007E00093E0A0E0B0E084839583A683B7838AE09A
:1007F00091E09183808385EC90E09587848784ECF9
:1008000090E09787868780EC90E0918B808B81ECDD
:1008100090E0938B828B82EC90E0958B848B86ECBE
:1008200090E0978B868B118E128E138E148EE2E1E0
:10083000F2E089E080838CE081838BE0828383E037
:10084000838385E0848386E0858388E086830895BA
:10085000CF93DF93CDB7DEB7C755D1090FB6F89464
:10086000DEBF0FBECDBF789484B5826084BD84B5F1
:10087000816084BD85B5826085BD85B5816085BD9B
:1008800080916E00816080936E0010928100809153
:1008900081008260809381008091810081608093DB
:1008A0008100809180008160809380008091B10000
:1008B00084608093B1008091B00081608093B0002B
:1008C00080917A00846080937A0080917A008260BF
:1008D00080937A0080917A00816080937A00809181
:1008E0007A00806880937A001092C1008091120291
:1008F0000E948700809114020E9487008091130259
:100900000E9487006CE870E0809115020E94F2005E
:100910006EEB70E0809116020E94F2006AEF70E0C8
:10092000809117020E94F20070E060E0809118024E
:100930000E94F200E0918501F091860182E08083BF
:10094000E0918101F09182011082E0918301F091A8
:1009500084018FEC808310928D01E0918901F091E8
:100960008A0186E08083E0918701F091880180818F
:1009700080618083E0918701F091880180818860A7
:100980008083E0918701F091880180818068808375
:10099000E0918701F091880180818F7D80837E01C5
:1009A0002AE3E20EF11C30E0C32E30E0D32E2FB745
:1009B000F8948091710190917201A0917301B091AE
:1009C00074012FBF409168015091690160916A01E3
:1009D00070916B01841B950BA60BB70B883E93405F
:1009E000A105B10508F420C12FB7F89480917101D9
:1009F00090917201A0917301B09174012FBF809307
:100A0000680190936901A0936A01B0936B016AEF4A
:100A100070E0809115020E94F20064E670E080911F
:100A200016020E94F20062E370E0809117020E94B9
:100A3000F2006AEF70E0809118020E94F20068E113
:100A400071E0CE018E5A9F4F0E94FF0263E271E077
:100A5000CE01845B9F4F0E94FF0268E171E0CE01EE
:100A60008A5B9F4F0E94FF0263E271E0CE01805CCF
:100A70009F4F0E94FF02BE016E5A7F4FCE01C49667
:100A80000E941003BE01645B7F4FCE018E960E94D0
:100A90001003BE016A5B7F4FCE0188960E9410034F
:100AA000BE01605C7F4FCE0101960E9410031BA225
:100AB0001AA21DA21CA21FA21EA269817A81611521
:100AC000710531F04D815E81CE0182960E94D40283
:100AD000BE01685D7F4FCE0182960E949802BE01E2
:100AE000625D7F4F0E949802BE016C5C7F4F0E9446
:100AF00098021BAE1AAE1DAE1CAE1FAE1EAE8E15FA
:100B00009F0559F0FC01608171816115710529F023
:100B100044815581C7010E94D402CE0182960E9471
:100B20006802CE0101960E946802CE0188960E945A
:100B30006802CE018E960E946802CE01C4960E9481
:100B400068024EAD5FAD2AAD3BAD90E080E010E0B5
:100B5000110F8417950750F42115310539F0F9016B
:100B6000E80FF91F6081613309F411600196883044
:100B7000910571F7412F50E070E060E019A2CE01BD
:100B800081964A015B01F1E08F229924AA24BB24BB
:100B9000769567955795479520E3820EFC018292E2
:100BA000CF01411551056105710559F7EF2B11F082
:100BB0000E945B0284E691E00E945B0260E080910B
:100BC00012020E94A600B0901302A090140208E046
:100BD000612F61708A2D0E94A600169561E08B2D11
:100BE0000E94A60060E08B2D0E94A600015081F7B4
:100BF00061E0809112020E94A600C7010E94680273
:100C0000CE01805C9F4F0E946802CE018A5B9F4F9D
:100C10000E946802CE01845B9F4F0E946802CE0151
:100C20008E5A9F4F0E946802C114D10409F4BFCEAE
:100C30000E94B801882309F4B6CE0E940000B3CE0A
:100C40002F923F924F925F926F927F928F929F92DC
:100C5000AF92BF92CF92DF92EF92FF920F931F93CA
:100C6000CF93DF93CDB7DEB7CA1BDB0B0FB6F8947B
:100C7000DEBF0FBECDBF09942A88398848885F84BB
:100C80006E847D848C849B84AA84B984C884DF802C
:100C9000EE80FD800C811B81AA81B981CE0FD11D10
:100CA0000FB6F894DEBF0FBECDBFED010895EE0F75
:100CB000FF1F0590F491E02D09940F931F93CF939C
:100CC000DF938230910510F482E090E0E0911B0206
:100CD000F0911C0230E020E0B0E0A0E0309799F401
:100CE0002115310509F44AC0281B390B2430310580
:100CF000D8F58A819B816115710589F1FB01938388
:100D00008283FE0111C04081518102811381481705
:100D10005907E0F04817590799F4109761F01296B7
:100D20000C93129713961C933296CF01DF91CF91BB
:100D30001F910F91089500931B0210931C02F4CF92
:100D40002115310551F04217530738F0A901DB0195
:100D50009A01BD01DF01F801C1CFEF01F9CF9093F6
:100D60001C0280931B02CDCFFE01E20FF31F819383
:100D700091932250310939832883D7CF20911902CA
:100D800030911A02232B41F420910201309103018A
:100D900030931A0220931902209100013091010131
:100DA0002115310541F42DB73EB740910401509112
:100DB0000501241B350BE0911902F0911A02E2178C
:100DC000F307A0F42E1B3F0B2817390778F0AC016E
:100DD0004E5F5F4F2417350748F04E0F5F1F50934B
:100DE0001A0240931902819391939FCFF0E0E0E0C3
:100DF0009CCFCF93DF930097E9F0FC0132971382E9
:100E00001282A0911B02B0911C02ED0130E020E0A3
:100E10001097A1F420813181820F931F2091190234
:100E200030911A022817390709F061C0F0931A02AD
:100E3000E0931902DF91CF910895EA01CE17DF0701
:100E4000E8F54A815B819E0141155105B1F7E90141
:100E5000FB83EA8349915991C40FD51FEC17FD0715
:100E600061F4808191810296840F951FE901998335
:100E70008883828193819B838A83F0E0E0E01296ED
:100E80008D919C9113970097B9F52D913C911197F5
:100E9000CD010296820F931F2091190230911A0200
:100EA0002817390739F6309751F510921C02109225
:100EB0001B02B0931A02A0931902BCCFD383C28342
:100EC00040815181840F951FC817D90761F44E5F87
:100ED0005F4F88819981480F591F518340838A81D0
:100EE0009B81938382832115310509F0B0CFF09364
:100EF0001C02E0931B029ECFFD01DC01C0CF1382D8
:100F00001282D7CFB0E0A0E0E8E8F7E00C94220628
:100F10008C01009751F4CB010E945D068C01C80141
:100F2000CDB7DEB7E0E10C943E06FC01E60FF71FFB
:100F30009C0122503109E217F30708F49DC0D90142
:100F4000CD91DC911197C617D70798F0C530D10520
:100F500030F3CE0104978617970708F3C61BD70B0B
:100F60002297C193D1936D937C93CF010E94F90690
:100F7000D6CF5B01AC1ABD0A4C018C0E9D1EA09110
:100F80001B02B0911C02512C412CF12CE12C10972A
:100F900031F58091190290911A028815990509F08E
:100FA0005CC04616570608F058C080910001909129
:100FB0000101009741F48DB79EB740910401509113
:100FC0000501841B950BE817F90708F055C0F0934D
:100FD0001A02E0931902F90171836083A0CF8D9109
:100FE0009C91119712966C90129713967C90139780
:100FF000A815B90559F56C0142E0C40ED11CCA14FC
:10100000DB0420F1AC014A195B09DA01129615974D
:1010100080F06282738251834083D9016D937C9307
:10102000E114F10471F0D7011396FC93EE9312973B
:1010300076CF22968C0F9D1FF90191838083F30157
:10104000EFCFF0931C02E0931B0269CF48165906BC
:1010500008F42C017D01D3019ACFCB010E945D06DB
:101060007C01009749F0AE01B8010E943F08C80119
:101070000E94F906870153CF10E000E050CFFB013A
:10108000DC0102C001900D9241505040D8F7089504
:10109000FB01DC018D91019080190110D9F3990BAE
:1010A0000895FB01DC0101900D920020E1F7089505
:1010B000F894FFCF00001D02800000000000EE0148
:1010C0004E017B013B02AC018A019E01666F727783
:1010D000617264003130006261636B776172640039
:1010E0003031006F6666003030004572726F7220DA
:1010F000696E7075742E2E2E2E706C65617365206E
:10110000656E7465722076616C696420696E7075B5
:0C11100074212121212121000D0A000082
:107E0000112484B714BE81FFF0D085E080938100F7
:107E100082E08093C00088E18093C10086E0809377
:107E2000C20080E18093C4008EE0C9D0259A86E02C
:107E300020E33CEF91E0309385002093840096BBD3
:107E4000B09BFECF1D9AA8958150A9F7CC24DD24C4
:107E500088248394B5E0AB2EA1E19A2EF3E0BF2EE7
:107E6000A2D0813461F49FD0082FAFD0023811F036
:107E7000013811F484E001C083E08DD089C08234E0
:107E800011F484E103C0853419F485E0A6D080C0E4
:107E9000853579F488D0E82EFF2485D0082F10E0AE
:107EA000102F00270E291F29000F111F8ED06801E7
:107EB0006FC0863521F484E090D080E0DECF843638
:107EC00009F040C070D06FD0082F6DD080E0C81688
:107ED00080E7D80618F4F601B7BEE895C0E0D1E017
:107EE00062D089930C17E1F7F0E0CF16F0E7DF06D8
:107EF00018F0F601B7BEE89568D007B600FCFDCFD4
:107F0000A601A0E0B1E02C9130E011968C91119780
:107F100090E0982F8827822B932B1296FA010C0160
:107F200087BEE89511244E5F5F4FF1E0A038BF0790
:107F300051F7F601A7BEE89507B600FCFDCF97BE46
:107F4000E89526C08437B1F42ED02DD0F82E2BD052
:107F50003CD0F601EF2C8F010F5F1F4F84911BD097
:107F6000EA94F801C1F70894C11CD11CFA94CF0C13
:107F7000D11C0EC0853739F428D08EE10CD085E9AC
:107F80000AD08FE07ACF813511F488E018D01DD067
:107F900080E101D065CF982F8091C00085FFFCCF94
:107FA0009093C60008958091C00087FFFCCF809118
:107FB000C00084FD01C0A8958091C6000895E0E648
:107FC000F0E098E1908380830895EDDF803219F02E
:107FD00088E0F5DFFFCF84E1DECF1F93182FE3DFCA
:107FE0001150E9F7F2DF1F91089580E0E8DFEE27F6
:047FF000FF270994CA
:027FFE00040479
:00000001FF
